{"project/contracts/UmbraOracle.sol":{"UmbraOracle":{"abi":[{"inputs":[{"internalType":"address","name":"_ethUsdFeed","type":"address"},{"internalType":"address","name":"_usdcUsdFeed","type":"address"}],"stateMutability":"nonpayable","type":"constructor"},{"inputs":[{"internalType":"address","name":"owner","type":"address"}],"name":"OwnableInvalidOwner","type":"error"},{"inputs":[{"internalType":"address","name":"account","type":"address"}],"name":"OwnableUnauthorizedAccount","type":"error"},{"inputs":[{"internalType":"string","name":"feed","type":"string"},{"internalType":"uint256","name":"updatedAt","type":"uint256"},{"internalType":"uint256","name":"currentTime","type":"uint256"}],"name":"StalePrice","type":"error"},{"anonymous":false,"inputs":[{"indexed":false,"internalType":"uint256","name":"price","type":"uint256"},{"indexed":false,"internalType":"uint256","name":"updatedAt","type":"uint256"}],"name":"ETHPriceQueried","type":"event"},{"anonymous":false,"inputs":[{"indexed":true,"internalType":"address","name":"user","type":"address"},{"indexed":false,"internalType":"uint256","name":"collateralAmountETH","type":"uint256"},{"indexed":false,"internalType":"uint256","name":"debtAmountUSDC","type":"uint256"},{"indexed":false,"internalType":"uint256","name":"healthFactor","type":"uint256"}],"name":"HealthFactorCalculated","type":"event"},{"anonymous":false,"inputs":[{"indexed":true,"internalType":"address","name":"previousOwner","type":"address"},{"indexed":true,"internalType":"address","name":"newOwner","type":"address"}],"name":"OwnershipTransferred","type":"event"},{"anonymous":false,"inputs":[{"indexed":false,"internalType":"uint256","name":"price","type":"uint256"},{"indexed":false,"internalType":"uint256","name":"updatedAt","type":"uint256"}],"name":"USDCPriceQueried","type":"event"},{"inputs":[],"name":"ethUsdFeed","outputs":[{"internalType":"contract AggregatorV3Interface","name":"","type":"address"}],"stateMutability":"view","type":"function"},{"inputs":[],"name":"getETHPrice","outputs":[{"internalType":"uint256","name":"price","type":"uint256"}],"stateMutability":"view","type":"function"},{"inputs":[],"name":"getETHPriceWithEvent","outputs":[{"internalType":"uint256","name":"price","type":"uint256"}],"stateMutability":"nonpayable","type":"function"},{"inputs":[{"internalType":"uint256","name":"collateralAmountETH","type":"uint256"},{"internalType":"uint256","name":"debtAmountUSDC","type":"uint256"}],"name":"getHealthFactor","outputs":[{"internalType":"uint256","name":"healthFactor","type":"uint256"}],"stateMutability":"view","type":"function"},{"inputs":[{"internalType":"uint256","name":"collateralAmountETH","type":"uint256"},{"internalType":"uint256","name":"debtAmountUSDC","type":"uint256"}],"name":"getHealthFactorWithEvent","outputs":[{"internalType":"uint256","name":"healthFactor","type":"uint256"}],"stateMutability":"nonpayable","type":"function"},{"inputs":[],"name":"getUSDCPrice","outputs":[{"internalType":"uint256","name":"price","type":"uint256"}],"stateMutability":"view","type":"function"},{"inputs":[],"name":"getUSDCPriceWithEvent","outputs":[{"internalType":"uint256","name":"price","type":"uint256"}],"stateMutability":"nonpayable","type":"function"},{"inputs":[],"name":"owner","outputs":[{"internalType":"address","name":"","type":"address"}],"stateMutability":"view","type":"function"},{"inputs":[],"name":"renounceOwnership","outputs":[],"stateMutability":"nonpayable","type":"function"},{"inputs":[{"internalType":"address","name":"newOwner","type":"address"}],"name":"transferOwnership","outputs":[],"stateMutability":"nonpayable","type":"function"},{"inputs":[],"name":"usdcUsdFeed","outputs":[{"internalType":"contract AggregatorV3Interface","name":"","type":"address"}],"stateMutability":"view","type":"function"}],"evm":{"bytecode":{"linkReferences":{},"object":"60c060405234801561000f575f5ffd5b50604051610f08380380610f0883398101604081905261002e9161018b565b338061005457604051631e4fbdf760e01b81525f60048201526024015b60405180910390fd5b61005d81610121565b506001600160a01b0382166100b45760405162461bcd60e51b815260206004820152601c60248201527f496e76616c6964204554482f5553442066656564206164647265737300000000604482015260640161004b565b6001600160a01b03811661010a5760405162461bcd60e51b815260206004820152601d60248201527f496e76616c696420555344432f55534420666565642061646472657373000000604482015260640161004b565b6001600160a01b039182166080521660a0526101bc565b5f80546001600160a01b038381166001600160a01b0319831681178455604051919092169283917f8be0079c531659141344cd1fd0a4f28419497f9722a3daafe3b4186f6b6457e09190a35050565b80516001600160a01b0381168114610186575f5ffd5b919050565b5f5f6040838503121561019c575f5ffd5b6101a583610170565b91506101b360208401610170565b90509250929050565b60805160a051610ce66102225f395f818160f80152818161019c0152818161023901528181610337015281816103cf015261078901525f8181610149015281816101ed015281816103830152818161048a015281816104e701526107120152610ce65ff3fe608060405234801561000f575f5ffd5b50600436106100a6575f3560e01c80635fc4dae21161006e5780635fc4dae214610132578063715018a61461013a5780638009b7bd146101445780638da5cb5b1461016b578063a607a8d91461017b578063f2fde38b14610183575f5ffd5b806338e27fe8146100aa57806343f572ad146100c55780634ad517bc146100d85780634d2c872a146100e05780634d9a75e5146100f3575b5f5ffd5b6100b2610196565b6040519081526020015b60405180910390f35b6100b26100d3366004610a27565b6101e6565b6100b2610331565b6100b26100ee366004610a27565b61037c565b61011a7f000000000000000000000000000000000000000000000000000000000000000081565b6040516001600160a01b0390911681526020016100bc565b6100b2610484565b6101426104ce565b005b61011a7f000000000000000000000000000000000000000000000000000000000000000081565b5f546001600160a01b031661011a565b6100b26104e1565b610142610191366004610a47565b61052b565b5f6101e17f0000000000000000000000000000000000000000000000000000000000000000604051806040016040528060088152602001671554d110cbd554d160c21b81525061056d565b905090565b5f5f6102317f0000000000000000000000000000000000000000000000000000000000000000604051806040016040528060078152602001661155120bd554d160ca1b81525061056d565b90505f61027e7f0000000000000000000000000000000000000000000000000000000000000000604051806040016040528060088152602001671554d110cbd554d160c21b81525061056d565b90505f670de0b6b3a76400006102948488610a88565b61029e9190610aa5565b90505f620f42406102af8488610a88565b6102b99190610aa5565b9050805f036102cb575f1994506102e4565b806102d7836064610a88565b6102e19190610aa5565b94505b604080518881526020810188905290810186905233907f96df9b99931636b730287949d80832331a9fd2fd69bc2bb6ce2145403af806889060600160405180910390a25050505092915050565b5f6101e17f0000000000000000000000000000000000000000000000000000000000000000604051806040016040528060088152602001671554d110cbd554d160c21b815250610803565b5f5f6103c77f0000000000000000000000000000000000000000000000000000000000000000604051806040016040528060078152602001661155120bd554d160ca1b815250610803565b90505f6104147f0000000000000000000000000000000000000000000000000000000000000000604051806040016040528060088152602001671554d110cbd554d160c21b815250610803565b90505f670de0b6b3a764000061042a8488610a88565b6104349190610aa5565b90505f620f42406104458488610a88565b61044f9190610aa5565b9050805f03610461575f19945061047a565b8061046d836064610a88565b6104779190610aa5565b94505b5050505092915050565b5f6101e17f0000000000000000000000000000000000000000000000000000000000000000604051806040016040528060078152602001661155120bd554d160ca1b81525061056d565b6104d66109ac565b6104df5f6109d8565b565b5f6101e17f0000000000000000000000000000000000000000000000000000000000000000604051806040016040528060078152602001661155120bd554d160ca1b815250610803565b6105336109ac565b6001600160a01b03811661056157604051631e4fbdf760e01b81525f60048201526024015b60405180910390fd5b61056a816109d8565b50565b5f5f5f846001600160a01b031663feaf968c6040518163ffffffff1660e01b815260040160a060405180830381865afa1580156105ac573d5f5f3e3d5ffd5b505050506040513d601f19601f820116820180604052508101906105d09190610ae2565b50935050925050610e1081426105e69190610b30565b111561060b5783814260405163871e519b60e01b815260040161055893929190610b43565b5f821361064a5760405162461bcd60e51b815260206004820152600d60248201526c496e76616c696420707269636560981b6044820152606401610558565b5f856001600160a01b031663313ce5676040518163ffffffff1660e01b8152600401602060405180830381865afa158015610687573d5f5f3e3d5ffd5b505050506040513d601f19601f820116820180604052508101906106ab9190610b86565b905060088160ff1611156106e0576106c4600882610ba6565b6106cf90600a610ca2565b6106d99084610aa5565b9350610710565b60088160ff16101561070c576106f7816008610ba6565b61070290600a610ca2565b6106d99084610a88565b8293505b7f00000000000000000000000000000000000000000000000000000000000000006001600160a01b0316866001600160a01b0316036107875760408051858152602081018490527f7fea984edf6785d465799ea19d2f922ca3683710265b3aa7e75de0d53b330c9f910160405180910390a16107fa565b7f00000000000000000000000000000000000000000000000000000000000000006001600160a01b0316866001600160a01b0316036107fa5760408051858152602081018490527ff022fcf06928eb609600b6e2410e57eb7ae0f3252e49455f8752df2f63718db9910160405180910390a15b50505092915050565b5f5f5f846001600160a01b031663feaf968c6040518163ffffffff1660e01b815260040160a060405180830381865afa158015610842573d5f5f3e3d5ffd5b505050506040513d601f19601f820116820180604052508101906108669190610ae2565b50935050925050610e10814261087c9190610b30565b11156108a15783814260405163871e519b60e01b815260040161055893929190610b43565b5f82136108e05760405162461bcd60e51b815260206004820152600d60248201526c496e76616c696420707269636560981b6044820152606401610558565b5f856001600160a01b031663313ce5676040518163ffffffff1660e01b8152600401602060405180830381865afa15801561091d573d5f5f3e3d5ffd5b505050506040513d601f19601f820116820180604052508101906109419190610b86565b905060088160ff1611156109765761095a600882610ba6565b61096590600a610ca2565b61096f9084610aa5565b93506107fa565b60088160ff1610156109a25761098d816008610ba6565b61099890600a610ca2565b61096f9084610a88565b5090949350505050565b5f546001600160a01b031633146104df5760405163118cdaa760e01b8152336004820152602401610558565b5f80546001600160a01b038381166001600160a01b0319831681178455604051919092169283917f8be0079c531659141344cd1fd0a4f28419497f9722a3daafe3b4186f6b6457e09190a35050565b5f5f60408385031215610a38575f5ffd5b50508035926020909101359150565b5f60208284031215610a57575f5ffd5b81356001600160a01b0381168114610a6d575f5ffd5b9392505050565b634e487b7160e01b5f52601160045260245ffd5b8082028115828204841417610a9f57610a9f610a74565b92915050565b5f82610abf57634e487b7160e01b5f52601260045260245ffd5b500490565b805169ffffffffffffffffffff81168114610add575f5ffd5b919050565b5f5f5f5f5f60a08688031215610af6575f5ffd5b610aff86610ac4565b60208701516040880151606089015192975090955093509150610b2460808701610ac4565b90509295509295909350565b81810381811115610a9f57610a9f610a74565b606081525f84518060608401528060208701608085015e5f608082850101526080601f19601f830116840101915050836020830152826040830152949350505050565b5f60208284031215610b96575f5ffd5b815160ff81168114610a6d575f5ffd5b60ff8281168282160390811115610a9f57610a9f610a74565b6001815b6001841115610bfa57808504811115610bde57610bde610a74565b6001841615610bec57908102905b60019390931c928002610bc3565b935093915050565b5f82610c1057506001610a9f565b81610c1c57505f610a9f565b8160018114610c325760028114610c3c57610c58565b6001915050610a9f565b60ff841115610c4d57610c4d610a74565b50506001821b610a9f565b5060208310610133831016604e8410600b8410161715610c7b575081810a610a9f565b610c875f198484610bbf565b805f1904821115610c9a57610c9a610a74565b029392505050565b5f610a6d60ff841683610c0256fea2646970667358221220c160f9ac53b55556692a697ad1037dd661dc2768cdc3af2aec3af53ee7d00b3464736f6c634300081c0033","opcodes":"PUSH1 0xC0 PUSH1 0x40 MSTORE CALLVALUE DUP1 ISZERO PUSH2 0xF JUMPI PUSH0 PUSH0 REVERT JUMPDEST POP PUSH1 0x40 MLOAD PUSH2 0xF08 CODESIZE SUB DUP1 PUSH2 0xF08 DUP4 CODECOPY DUP2 ADD PUSH1 0x40 DUP2 SWAP1 MSTORE PUSH2 0x2E SWAP2 PUSH2 0x18B JUMP JUMPDEST CALLER DUP1 PUSH2 0x54 JUMPI PUSH1 0x40 MLOAD PUSH4 0x1E4FBDF7 PUSH1 0xE0 SHL DUP2 MSTORE PUSH0 PUSH1 0x4 DUP3 ADD MSTORE PUSH1 0x24 ADD JUMPDEST PUSH1 0x40 MLOAD DUP1 SWAP2 SUB SWAP1 REVERT JUMPDEST PUSH2 0x5D DUP2 PUSH2 0x121 JUMP JUMPDEST POP PUSH1 0x1 PUSH1 0x1 PUSH1 0xA0 SHL SUB DUP3 AND PUSH2 0xB4 JUMPI PUSH1 0x40 MLOAD PUSH3 0x461BCD PUSH1 0xE5 SHL DUP2 MSTORE PUSH1 0x20 PUSH1 0x4 DUP3 ADD MSTORE PUSH1 0x1C PUSH1 0x24 DUP3 ADD MSTORE PUSH32 0x496E76616C6964204554482F5553442066656564206164647265737300000000 PUSH1 0x44 DUP3 ADD MSTORE PUSH1 0x64 ADD PUSH2 0x4B JUMP JUMPDEST PUSH1 0x1 PUSH1 0x1 PUSH1 0xA0 SHL SUB DUP2 AND PUSH2 0x10A JUMPI PUSH1 0x40 MLOAD PUSH3 0x461BCD PUSH1 0xE5 SHL DUP2 MSTORE PUSH1 0x20 PUSH1 0x4 DUP3 ADD MSTORE PUSH1 0x1D PUSH1 0x24 DUP3 ADD MSTORE PUSH32 0x496E76616C696420555344432F55534420666565642061646472657373000000 PUSH1 0x44 DUP3 ADD MSTORE PUSH1 0x64 ADD PUSH2 0x4B JUMP JUMPDEST PUSH1 0x1 PUSH1 0x1 PUSH1 0xA0 SHL SUB SWAP2 DUP3 AND PUSH1 0x80 MSTORE AND PUSH1 0xA0 MSTORE PUSH2 0x1BC JUMP JUMPDEST PUSH0 DUP1 SLOAD PUSH1 0x1 PUSH1 0x1 PUSH1 0xA0 SHL SUB DUP4 DUP2 AND PUSH1 0x1 PUSH1 0x1 PUSH1 0xA0 SHL SUB NOT DUP4 AND DUP2 OR DUP5 SSTORE PUSH1 0x40 MLOAD SWAP2 SWAP1 SWAP3 AND SWAP3 DUP4 SWAP2 PUSH32 0x8BE0079C531659141344CD1FD0A4F28419497F9722A3DAAFE3B4186F6B6457E0 SWAP2 SWAP1 LOG3 POP POP JUMP JUMPDEST DUP1 MLOAD PUSH1 0x1 PUSH1 0x1 PUSH1 0xA0 SHL SUB DUP2 AND DUP2 EQ PUSH2 0x186 JUMPI PUSH0 PUSH0 REVERT JUMPDEST SWAP2 SWAP1 POP JUMP JUMPDEST PUSH0 PUSH0 PUSH1 0x40 DUP4 DUP6 SUB SLT ISZERO PUSH2 0x19C JUMPI PUSH0 PUSH0 REVERT JUMPDEST PUSH2 0x1A5 DUP4 PUSH2 0x170 JUMP JUMPDEST SWAP2 POP PUSH2 0x1B3 PUSH1 0x20 DUP5 ADD PUSH2 0x170 JUMP JUMPDEST SWAP1 POP SWAP3 POP SWAP3 SWAP1 POP JUMP JUMPDEST PUSH1 0x80 MLOAD PUSH1 0xA0 MLOAD PUSH2 0xCE6 PUSH2 0x222 PUSH0 CODECOPY PUSH0 DUP2 DUP2 PUSH1 0xF8 ADD MSTORE DUP2 DUP2 PUSH2 0x19C ADD MSTORE DUP2 DUP2 PUSH2 0x239 ADD MSTORE DUP2 DUP2 PUSH2 0x337 ADD MSTORE DUP2 DUP2 PUSH2 0x3CF ADD MSTORE PUSH2 0x789 ADD MSTORE PUSH0 DUP2 DUP2 PUSH2 0x149 ADD MSTORE DUP2 DUP2 PUSH2 0x1ED ADD MSTORE DUP2 DUP2 PUSH2 0x383 ADD MSTORE DUP2 DUP2 PUSH2 0x48A ADD MSTORE DUP2 DUP2 PUSH2 0x4E7 ADD MSTORE PUSH2 0x712 ADD MSTORE PUSH2 0xCE6 PUSH0 RETURN INVALID PUSH1 0x80 PUSH1 0x40 MSTORE CALLVALUE DUP1 ISZERO PUSH2 0xF JUMPI PUSH0 PUSH0 REVERT JUMPDEST POP PUSH1 0x4 CALLDATASIZE LT PUSH2 0xA6 JUMPI PUSH0 CALLDATALOAD PUSH1 0xE0 SHR DUP1 PUSH4 0x5FC4DAE2 GT PUSH2 0x6E JUMPI DUP1 PUSH4 0x5FC4DAE2 EQ PUSH2 0x132 JUMPI DUP1 PUSH4 0x715018A6 EQ PUSH2 0x13A JUMPI DUP1 PUSH4 0x8009B7BD EQ PUSH2 0x144 JUMPI DUP1 PUSH4 0x8DA5CB5B EQ PUSH2 0x16B JUMPI DUP1 PUSH4 0xA607A8D9 EQ PUSH2 0x17B JUMPI DUP1 PUSH4 0xF2FDE38B EQ PUSH2 0x183 JUMPI PUSH0 PUSH0 REVERT JUMPDEST DUP1 PUSH4 0x38E27FE8 EQ PUSH2 0xAA JUMPI DUP1 PUSH4 0x43F572AD EQ PUSH2 0xC5 JUMPI DUP1 PUSH4 0x4AD517BC EQ PUSH2 0xD8 JUMPI DUP1 PUSH4 0x4D2C872A EQ PUSH2 0xE0 JUMPI DUP1 PUSH4 0x4D9A75E5 EQ PUSH2 0xF3 JUMPI JUMPDEST PUSH0 PUSH0 REVERT JUMPDEST PUSH2 0xB2 PUSH2 0x196 JUMP JUMPDEST PUSH1 0x40 MLOAD SWAP1 DUP2 MSTORE PUSH1 0x20 ADD JUMPDEST PUSH1 0x40 MLOAD DUP1 SWAP2 SUB SWAP1 RETURN JUMPDEST PUSH2 0xB2 PUSH2 0xD3 CALLDATASIZE PUSH1 0x4 PUSH2 0xA27 JUMP JUMPDEST PUSH2 0x1E6 JUMP JUMPDEST PUSH2 0xB2 PUSH2 0x331 JUMP JUMPDEST PUSH2 0xB2 PUSH2 0xEE CALLDATASIZE PUSH1 0x4 PUSH2 0xA27 JUMP JUMPDEST PUSH2 0x37C JUMP JUMPDEST PUSH2 0x11A PUSH32 0x0 DUP2 JUMP JUMPDEST PUSH1 0x40 MLOAD PUSH1 0x1 PUSH1 0x1 PUSH1 0xA0 SHL SUB SWAP1 SWAP2 AND DUP2 MSTORE PUSH1 0x20 ADD PUSH2 0xBC JUMP JUMPDEST PUSH2 0xB2 PUSH2 0x484 JUMP JUMPDEST PUSH2 0x142 PUSH2 0x4CE JUMP JUMPDEST STOP JUMPDEST PUSH2 0x11A PUSH32 0x0 DUP2 JUMP JUMPDEST PUSH0 SLOAD PUSH1 0x1 PUSH1 0x1 PUSH1 0xA0 SHL SUB AND PUSH2 0x11A JUMP JUMPDEST PUSH2 0xB2 PUSH2 0x4E1 JUMP JUMPDEST PUSH2 0x142 PUSH2 0x191 CALLDATASIZE PUSH1 0x4 PUSH2 0xA47 JUMP JUMPDEST PUSH2 0x52B JUMP JUMPDEST PUSH0 PUSH2 0x1E1 PUSH32 0x0 PUSH1 0x40 MLOAD DUP1 PUSH1 0x40 ADD PUSH1 0x40 MSTORE DUP1 PUSH1 0x8 DUP2 MSTORE PUSH1 0x20 ADD PUSH8 0x1554D110CBD554D1 PUSH1 0xC2 SHL DUP2 MSTORE POP PUSH2 0x56D JUMP JUMPDEST SWAP1 POP SWAP1 JUMP JUMPDEST PUSH0 PUSH0 PUSH2 0x231 PUSH32 0x0 PUSH1 0x40 MLOAD DUP1 PUSH1 0x40 ADD PUSH1 0x40 MSTORE DUP1 PUSH1 0x7 DUP2 MSTORE PUSH1 0x20 ADD PUSH7 0x1155120BD554D1 PUSH1 0xCA SHL DUP2 MSTORE POP PUSH2 0x56D JUMP JUMPDEST SWAP1 POP PUSH0 PUSH2 0x27E PUSH32 0x0 PUSH1 0x40 MLOAD DUP1 PUSH1 0x40 ADD PUSH1 0x40 MSTORE DUP1 PUSH1 0x8 DUP2 MSTORE PUSH1 0x20 ADD PUSH8 0x1554D110CBD554D1 PUSH1 0xC2 SHL DUP2 MSTORE POP PUSH2 0x56D JUMP JUMPDEST SWAP1 POP PUSH0 PUSH8 0xDE0B6B3A7640000 PUSH2 0x294 DUP5 DUP9 PUSH2 0xA88 JUMP JUMPDEST PUSH2 0x29E SWAP2 SWAP1 PUSH2 0xAA5 JUMP JUMPDEST SWAP1 POP PUSH0 PUSH3 0xF4240 PUSH2 0x2AF DUP5 DUP9 PUSH2 0xA88 JUMP JUMPDEST PUSH2 0x2B9 SWAP2 SWAP1 PUSH2 0xAA5 JUMP JUMPDEST SWAP1 POP DUP1 PUSH0 SUB PUSH2 0x2CB JUMPI PUSH0 NOT SWAP5 POP PUSH2 0x2E4 JUMP JUMPDEST DUP1 PUSH2 0x2D7 DUP4 PUSH1 0x64 PUSH2 0xA88 JUMP JUMPDEST PUSH2 0x2E1 SWAP2 SWAP1 PUSH2 0xAA5 JUMP JUMPDEST SWAP5 POP JUMPDEST PUSH1 0x40 DUP1 MLOAD DUP9 DUP2 MSTORE PUSH1 0x20 DUP2 ADD DUP9 SWAP1 MSTORE SWAP1 DUP2 ADD DUP7 SWAP1 MSTORE CALLER SWAP1 PUSH32 0x96DF9B99931636B730287949D80832331A9FD2FD69BC2BB6CE2145403AF80688 SWAP1 PUSH1 0x60 ADD PUSH1 0x40 MLOAD DUP1 SWAP2 SUB SWAP1 LOG2 POP POP POP POP SWAP3 SWAP2 POP POP JUMP JUMPDEST PUSH0 PUSH2 0x1E1 PUSH32 0x0 PUSH1 0x40 MLOAD DUP1 PUSH1 0x40 ADD PUSH1 0x40 MSTORE DUP1 PUSH1 0x8 DUP2 MSTORE PUSH1 0x20 ADD PUSH8 0x1554D110CBD554D1 PUSH1 0xC2 SHL DUP2 MSTORE POP PUSH2 0x803 JUMP JUMPDEST PUSH0 PUSH0 PUSH2 0x3C7 PUSH32 0x0 PUSH1 0x40 MLOAD DUP1 PUSH1 0x40 ADD PUSH1 0x40 MSTORE DUP1 PUSH1 0x7 DUP2 MSTORE PUSH1 0x20 ADD PUSH7 0x1155120BD554D1 PUSH1 0xCA SHL DUP2 MSTORE POP PUSH2 0x803 JUMP JUMPDEST SWAP1 POP PUSH0 PUSH2 0x414 PUSH32 0x0 PUSH1 0x40 MLOAD DUP1 PUSH1 0x40 ADD PUSH1 0x40 MSTORE DUP1 PUSH1 0x8 DUP2 MSTORE PUSH1 0x20 ADD PUSH8 0x1554D110CBD554D1 PUSH1 0xC2 SHL DUP2 MSTORE POP PUSH2 0x803 JUMP JUMPDEST SWAP1 POP PUSH0 PUSH8 0xDE0B6B3A7640000 PUSH2 0x42A DUP5 DUP9 PUSH2 0xA88 JUMP JUMPDEST PUSH2 0x434 SWAP2 SWAP1 PUSH2 0xAA5 JUMP JUMPDEST SWAP1 POP PUSH0 PUSH3 0xF4240 PUSH2 0x445 DUP5 DUP9 PUSH2 0xA88 JUMP JUMPDEST PUSH2 0x44F SWAP2 SWAP1 PUSH2 0xAA5 JUMP JUMPDEST SWAP1 POP DUP1 PUSH0 SUB PUSH2 0x461 JUMPI PUSH0 NOT SWAP5 POP PUSH2 0x47A JUMP JUMPDEST DUP1 PUSH2 0x46D DUP4 PUSH1 0x64 PUSH2 0xA88 JUMP JUMPDEST PUSH2 0x477 SWAP2 SWAP1 PUSH2 0xAA5 JUMP JUMPDEST SWAP5 POP JUMPDEST POP POP POP POP SWAP3 SWAP2 POP POP JUMP JUMPDEST PUSH0 PUSH2 0x1E1 PUSH32 0x0 PUSH1 0x40 MLOAD DUP1 PUSH1 0x40 ADD PUSH1 0x40 MSTORE DUP1 PUSH1 0x7 DUP2 MSTORE PUSH1 0x20 ADD PUSH7 0x1155120BD554D1 PUSH1 0xCA SHL DUP2 MSTORE POP PUSH2 0x56D JUMP JUMPDEST PUSH2 0x4D6 PUSH2 0x9AC JUMP JUMPDEST PUSH2 0x4DF PUSH0 PUSH2 0x9D8 JUMP JUMPDEST JUMP JUMPDEST PUSH0 PUSH2 0x1E1 PUSH32 0x0 PUSH1 0x40 MLOAD DUP1 PUSH1 0x40 ADD PUSH1 0x40 MSTORE DUP1 PUSH1 0x7 DUP2 MSTORE PUSH1 0x20 ADD PUSH7 0x1155120BD554D1 PUSH1 0xCA SHL DUP2 MSTORE POP PUSH2 0x803 JUMP JUMPDEST PUSH2 0x533 PUSH2 0x9AC JUMP JUMPDEST PUSH1 0x1 PUSH1 0x1 PUSH1 0xA0 SHL SUB DUP2 AND PUSH2 0x561 JUMPI PUSH1 0x40 MLOAD PUSH4 0x1E4FBDF7 PUSH1 0xE0 SHL DUP2 MSTORE PUSH0 PUSH1 0x4 DUP3 ADD MSTORE PUSH1 0x24 ADD JUMPDEST PUSH1 0x40 MLOAD DUP1 SWAP2 SUB SWAP1 REVERT JUMPDEST PUSH2 0x56A DUP2 PUSH2 0x9D8 JUMP JUMPDEST POP JUMP JUMPDEST PUSH0 PUSH0 PUSH0 DUP5 PUSH1 0x1 PUSH1 0x1 PUSH1 0xA0 SHL SUB AND PUSH4 0xFEAF968C PUSH1 0x40 MLOAD DUP2 PUSH4 0xFFFFFFFF AND PUSH1 0xE0 SHL DUP2 MSTORE PUSH1 0x4 ADD PUSH1 0xA0 PUSH1 0x40 MLOAD DUP1 DUP4 SUB DUP2 DUP7 GAS STATICCALL ISZERO DUP1 ISZERO PUSH2 0x5AC JUMPI RETURNDATASIZE PUSH0 PUSH0 RETURNDATACOPY RETURNDATASIZE PUSH0 REVERT JUMPDEST POP POP POP POP PUSH1 0x40 MLOAD RETURNDATASIZE PUSH1 0x1F NOT PUSH1 0x1F DUP3 ADD AND DUP3 ADD DUP1 PUSH1 0x40 MSTORE POP DUP2 ADD SWAP1 PUSH2 0x5D0 SWAP2 SWAP1 PUSH2 0xAE2 JUMP JUMPDEST POP SWAP4 POP POP SWAP3 POP POP PUSH2 0xE10 DUP2 TIMESTAMP PUSH2 0x5E6 SWAP2 SWAP1 PUSH2 0xB30 JUMP JUMPDEST GT ISZERO PUSH2 0x60B JUMPI DUP4 DUP2 TIMESTAMP PUSH1 0x40 MLOAD PUSH4 0x871E519B PUSH1 0xE0 SHL DUP2 MSTORE PUSH1 0x4 ADD PUSH2 0x558 SWAP4 SWAP3 SWAP2 SWAP1 PUSH2 0xB43 JUMP JUMPDEST PUSH0 DUP3 SGT PUSH2 0x64A JUMPI PUSH1 0x40 MLOAD PUSH3 0x461BCD PUSH1 0xE5 SHL DUP2 MSTORE PUSH1 0x20 PUSH1 0x4 DUP3 ADD MSTORE PUSH1 0xD PUSH1 0x24 DUP3 ADD MSTORE PUSH13 0x496E76616C6964207072696365 PUSH1 0x98 SHL PUSH1 0x44 DUP3 ADD MSTORE PUSH1 0x64 ADD PUSH2 0x558 JUMP JUMPDEST PUSH0 DUP6 PUSH1 0x1 PUSH1 0x1 PUSH1 0xA0 SHL SUB AND PUSH4 0x313CE567 PUSH1 0x40 MLOAD DUP2 PUSH4 0xFFFFFFFF AND PUSH1 0xE0 SHL DUP2 MSTORE PUSH1 0x4 ADD PUSH1 0x20 PUSH1 0x40 MLOAD DUP1 DUP4 SUB DUP2 DUP7 GAS STATICCALL ISZERO DUP1 ISZERO PUSH2 0x687 JUMPI RETURNDATASIZE PUSH0 PUSH0 RETURNDATACOPY RETURNDATASIZE PUSH0 REVERT JUMPDEST POP POP POP POP PUSH1 0x40 MLOAD RETURNDATASIZE PUSH1 0x1F NOT PUSH1 0x1F DUP3 ADD AND DUP3 ADD DUP1 PUSH1 0x40 MSTORE POP DUP2 ADD SWAP1 PUSH2 0x6AB SWAP2 SWAP1 PUSH2 0xB86 JUMP JUMPDEST SWAP1 POP PUSH1 0x8 DUP2 PUSH1 0xFF AND GT ISZERO PUSH2 0x6E0 JUMPI PUSH2 0x6C4 PUSH1 0x8 DUP3 PUSH2 0xBA6 JUMP JUMPDEST PUSH2 0x6CF SWAP1 PUSH1 0xA PUSH2 0xCA2 JUMP JUMPDEST PUSH2 0x6D9 SWAP1 DUP5 PUSH2 0xAA5 JUMP JUMPDEST SWAP4 POP PUSH2 0x710 JUMP JUMPDEST PUSH1 0x8 DUP2 PUSH1 0xFF AND LT ISZERO PUSH2 0x70C JUMPI PUSH2 0x6F7 DUP2 PUSH1 0x8 PUSH2 0xBA6 JUMP JUMPDEST PUSH2 0x702 SWAP1 PUSH1 0xA PUSH2 0xCA2 JUMP JUMPDEST PUSH2 0x6D9 SWAP1 DUP5 PUSH2 0xA88 JUMP JUMPDEST DUP3 SWAP4 POP JUMPDEST PUSH32 0x0 PUSH1 0x1 PUSH1 0x1 PUSH1 0xA0 SHL SUB AND DUP7 PUSH1 0x1 PUSH1 0x1 PUSH1 0xA0 SHL SUB AND SUB PUSH2 0x787 JUMPI PUSH1 0x40 DUP1 MLOAD DUP6 DUP2 MSTORE PUSH1 0x20 DUP2 ADD DUP5 SWAP1 MSTORE PUSH32 0x7FEA984EDF6785D465799EA19D2F922CA3683710265B3AA7E75DE0D53B330C9F SWAP2 ADD PUSH1 0x40 MLOAD DUP1 SWAP2 SUB SWAP1 LOG1 PUSH2 0x7FA JUMP JUMPDEST PUSH32 0x0 PUSH1 0x1 PUSH1 0x1 PUSH1 0xA0 SHL SUB AND DUP7 PUSH1 0x1 PUSH1 0x1 PUSH1 0xA0 SHL SUB AND SUB PUSH2 0x7FA JUMPI PUSH1 0x40 DUP1 MLOAD DUP6 DUP2 MSTORE PUSH1 0x20 DUP2 ADD DUP5 SWAP1 MSTORE PUSH32 0xF022FCF06928EB609600B6E2410E57EB7AE0F3252E49455F8752DF2F63718DB9 SWAP2 ADD PUSH1 0x40 MLOAD DUP1 SWAP2 SUB SWAP1 LOG1 JUMPDEST POP POP POP SWAP3 SWAP2 POP POP JUMP JUMPDEST PUSH0 PUSH0 PUSH0 DUP5 PUSH1 0x1 PUSH1 0x1 PUSH1 0xA0 SHL SUB AND PUSH4 0xFEAF968C PUSH1 0x40 MLOAD DUP2 PUSH4 0xFFFFFFFF AND PUSH1 0xE0 SHL DUP2 MSTORE PUSH1 0x4 ADD PUSH1 0xA0 PUSH1 0x40 MLOAD DUP1 DUP4 SUB DUP2 DUP7 GAS STATICCALL ISZERO DUP1 ISZERO PUSH2 0x842 JUMPI RETURNDATASIZE PUSH0 PUSH0 RETURNDATACOPY RETURNDATASIZE PUSH0 REVERT JUMPDEST POP POP POP POP PUSH1 0x40 MLOAD RETURNDATASIZE PUSH1 0x1F NOT PUSH1 0x1F DUP3 ADD AND DUP3 ADD DUP1 PUSH1 0x40 MSTORE POP DUP2 ADD SWAP1 PUSH2 0x866 SWAP2 SWAP1 PUSH2 0xAE2 JUMP JUMPDEST POP SWAP4 POP POP SWAP3 POP POP PUSH2 0xE10 DUP2 TIMESTAMP PUSH2 0x87C SWAP2 SWAP1 PUSH2 0xB30 JUMP JUMPDEST GT ISZERO PUSH2 0x8A1 JUMPI DUP4 DUP2 TIMESTAMP PUSH1 0x40 MLOAD PUSH4 0x871E519B PUSH1 0xE0 SHL DUP2 MSTORE PUSH1 0x4 ADD PUSH2 0x558 SWAP4 SWAP3 SWAP2 SWAP1 PUSH2 0xB43 JUMP JUMPDEST PUSH0 DUP3 SGT PUSH2 0x8E0 JUMPI PUSH1 0x40 MLOAD PUSH3 0x461BCD PUSH1 0xE5 SHL DUP2 MSTORE PUSH1 0x20 PUSH1 0x4 DUP3 ADD MSTORE PUSH1 0xD PUSH1 0x24 DUP3 ADD MSTORE PUSH13 0x496E76616C6964207072696365 PUSH1 0x98 SHL PUSH1 0x44 DUP3 ADD MSTORE PUSH1 0x64 ADD PUSH2 0x558 JUMP JUMPDEST PUSH0 DUP6 PUSH1 0x1 PUSH1 0x1 PUSH1 0xA0 SHL SUB AND PUSH4 0x313CE567 PUSH1 0x40 MLOAD DUP2 PUSH4 0xFFFFFFFF AND PUSH1 0xE0 SHL DUP2 MSTORE PUSH1 0x4 ADD PUSH1 0x20 PUSH1 0x40 MLOAD DUP1 DUP4 SUB DUP2 DUP7 GAS STATICCALL ISZERO DUP1 ISZERO PUSH2 0x91D JUMPI RETURNDATASIZE PUSH0 PUSH0 RETURNDATACOPY RETURNDATASIZE PUSH0 REVERT JUMPDEST POP POP POP POP PUSH1 0x40 MLOAD RETURNDATASIZE PUSH1 0x1F NOT PUSH1 0x1F DUP3 ADD AND DUP3 ADD DUP1 PUSH1 0x40 MSTORE POP DUP2 ADD SWAP1 PUSH2 0x941 SWAP2 SWAP1 PUSH2 0xB86 JUMP JUMPDEST SWAP1 POP PUSH1 0x8 DUP2 PUSH1 0xFF AND GT ISZERO PUSH2 0x976 JUMPI PUSH2 0x95A PUSH1 0x8 DUP3 PUSH2 0xBA6 JUMP JUMPDEST PUSH2 0x965 SWAP1 PUSH1 0xA PUSH2 0xCA2 JUMP JUMPDEST PUSH2 0x96F SWAP1 DUP5 PUSH2 0xAA5 JUMP JUMPDEST SWAP4 POP PUSH2 0x7FA JUMP JUMPDEST PUSH1 0x8 DUP2 PUSH1 0xFF AND LT ISZERO PUSH2 0x9A2 JUMPI PUSH2 0x98D DUP2 PUSH1 0x8 PUSH2 0xBA6 JUMP JUMPDEST PUSH2 0x998 SWAP1 PUSH1 0xA PUSH2 0xCA2 JUMP JUMPDEST PUSH2 0x96F SWAP1 DUP5 PUSH2 0xA88 JUMP JUMPDEST POP SWAP1 SWAP5 SWAP4 POP POP POP POP JUMP JUMPDEST PUSH0 SLOAD PUSH1 0x1 PUSH1 0x1 PUSH1 0xA0 SHL SUB AND CALLER EQ PUSH2 0x4DF JUMPI PUSH1 0x40 MLOAD PUSH4 0x118CDAA7 PUSH1 0xE0 SHL DUP2 MSTORE CALLER PUSH1 0x4 DUP3 ADD MSTORE PUSH1 0x24 ADD PUSH2 0x558 JUMP JUMPDEST PUSH0 DUP1 SLOAD PUSH1 0x1 PUSH1 0x1 PUSH1 0xA0 SHL SUB DUP4 DUP2 AND PUSH1 0x1 PUSH1 0x1 PUSH1 0xA0 SHL SUB NOT DUP4 AND DUP2 OR DUP5 SSTORE PUSH1 0x40 MLOAD SWAP2 SWAP1 SWAP3 AND SWAP3 DUP4 SWAP2 PUSH32 0x8BE0079C531659141344CD1FD0A4F28419497F9722A3DAAFE3B4186F6B6457E0 SWAP2 SWAP1 LOG3 POP POP JUMP JUMPDEST PUSH0 PUSH0 PUSH1 0x40 DUP4 DUP6 SUB SLT ISZERO PUSH2 0xA38 JUMPI PUSH0 PUSH0 REVERT JUMPDEST POP POP DUP1 CALLDATALOAD SWAP3 PUSH1 0x20 SWAP1 SWAP2 ADD CALLDATALOAD SWAP2 POP JUMP JUMPDEST PUSH0 PUSH1 0x20 DUP3 DUP5 SUB SLT ISZERO PUSH2 0xA57 JUMPI PUSH0 PUSH0 REVERT JUMPDEST DUP2 CALLDATALOAD PUSH1 0x1 PUSH1 0x1 PUSH1 0xA0 SHL SUB DUP2 AND DUP2 EQ PUSH2 0xA6D JUMPI PUSH0 PUSH0 REVERT JUMPDEST SWAP4 SWAP3 POP POP POP JUMP JUMPDEST PUSH4 0x4E487B71 PUSH1 0xE0 SHL PUSH0 MSTORE PUSH1 0x11 PUSH1 0x4 MSTORE PUSH1 0x24 PUSH0 REVERT JUMPDEST DUP1 DUP3 MUL DUP2 ISZERO DUP3 DUP3 DIV DUP5 EQ OR PUSH2 0xA9F JUMPI PUSH2 0xA9F PUSH2 0xA74 JUMP JUMPDEST SWAP3 SWAP2 POP POP JUMP JUMPDEST PUSH0 DUP3 PUSH2 0xABF JUMPI PUSH4 0x4E487B71 PUSH1 0xE0 SHL PUSH0 MSTORE PUSH1 0x12 PUSH1 0x4 MSTORE PUSH1 0x24 PUSH0 REVERT JUMPDEST POP DIV SWAP1 JUMP JUMPDEST DUP1 MLOAD PUSH10 0xFFFFFFFFFFFFFFFFFFFF DUP2 AND DUP2 EQ PUSH2 0xADD JUMPI PUSH0 PUSH0 REVERT JUMPDEST SWAP2 SWAP1 POP JUMP JUMPDEST PUSH0 PUSH0 PUSH0 PUSH0 PUSH0 PUSH1 0xA0 DUP7 DUP9 SUB SLT ISZERO PUSH2 0xAF6 JUMPI PUSH0 PUSH0 REVERT JUMPDEST PUSH2 0xAFF DUP7 PUSH2 0xAC4 JUMP JUMPDEST PUSH1 0x20 DUP8 ADD MLOAD PUSH1 0x40 DUP9 ADD MLOAD PUSH1 0x60 DUP10 ADD MLOAD SWAP3 SWAP8 POP SWAP1 SWAP6 POP SWAP4 POP SWAP2 POP PUSH2 0xB24 PUSH1 0x80 DUP8 ADD PUSH2 0xAC4 JUMP JUMPDEST SWAP1 POP SWAP3 SWAP6 POP SWAP3 SWAP6 SWAP1 SWAP4 POP JUMP JUMPDEST DUP2 DUP2 SUB DUP2 DUP2 GT ISZERO PUSH2 0xA9F JUMPI PUSH2 0xA9F PUSH2 0xA74 JUMP JUMPDEST PUSH1 0x60 DUP2 MSTORE PUSH0 DUP5 MLOAD DUP1 PUSH1 0x60 DUP5 ADD MSTORE DUP1 PUSH1 0x20 DUP8 ADD PUSH1 0x80 DUP6 ADD MCOPY PUSH0 PUSH1 0x80 DUP3 DUP6 ADD ADD MSTORE PUSH1 0x80 PUSH1 0x1F NOT PUSH1 0x1F DUP4 ADD AND DUP5 ADD ADD SWAP2 POP POP DUP4 PUSH1 0x20 DUP4 ADD MSTORE DUP3 PUSH1 0x40 DUP4 ADD MSTORE SWAP5 SWAP4 POP POP POP POP JUMP JUMPDEST PUSH0 PUSH1 0x20 DUP3 DUP5 SUB SLT ISZERO PUSH2 0xB96 JUMPI PUSH0 PUSH0 REVERT JUMPDEST DUP2 MLOAD PUSH1 0xFF DUP2 AND DUP2 EQ PUSH2 0xA6D JUMPI PUSH0 PUSH0 REVERT JUMPDEST PUSH1 0xFF DUP3 DUP2 AND DUP3 DUP3 AND SUB SWAP1 DUP2 GT ISZERO PUSH2 0xA9F JUMPI PUSH2 0xA9F PUSH2 0xA74 JUMP JUMPDEST PUSH1 0x1 DUP2 JUMPDEST PUSH1 0x1 DUP5 GT ISZERO PUSH2 0xBFA JUMPI DUP1 DUP6 DIV DUP2 GT ISZERO PUSH2 0xBDE JUMPI PUSH2 0xBDE PUSH2 0xA74 JUMP JUMPDEST PUSH1 0x1 DUP5 AND ISZERO PUSH2 0xBEC JUMPI SWAP1 DUP2 MUL SWAP1 JUMPDEST PUSH1 0x1 SWAP4 SWAP1 SWAP4 SHR SWAP3 DUP1 MUL PUSH2 0xBC3 JUMP JUMPDEST SWAP4 POP SWAP4 SWAP2 POP POP JUMP JUMPDEST PUSH0 DUP3 PUSH2 0xC10 JUMPI POP PUSH1 0x1 PUSH2 0xA9F JUMP JUMPDEST DUP2 PUSH2 0xC1C JUMPI POP PUSH0 PUSH2 0xA9F JUMP JUMPDEST DUP2 PUSH1 0x1 DUP2 EQ PUSH2 0xC32 JUMPI PUSH1 0x2 DUP2 EQ PUSH2 0xC3C JUMPI PUSH2 0xC58 JUMP JUMPDEST PUSH1 0x1 SWAP2 POP POP PUSH2 0xA9F JUMP JUMPDEST PUSH1 0xFF DUP5 GT ISZERO PUSH2 0xC4D JUMPI PUSH2 0xC4D PUSH2 0xA74 JUMP JUMPDEST POP POP PUSH1 0x1 DUP3 SHL PUSH2 0xA9F JUMP JUMPDEST POP PUSH1 0x20 DUP4 LT PUSH2 0x133 DUP4 LT AND PUSH1 0x4E DUP5 LT PUSH1 0xB DUP5 LT AND OR ISZERO PUSH2 0xC7B JUMPI POP DUP2 DUP2 EXP PUSH2 0xA9F JUMP JUMPDEST PUSH2 0xC87 PUSH0 NOT DUP5 DUP5 PUSH2 0xBBF JUMP JUMPDEST DUP1 PUSH0 NOT DIV DUP3 GT ISZERO PUSH2 0xC9A JUMPI PUSH2 0xC9A PUSH2 0xA74 JUMP JUMPDEST MUL SWAP4 SWAP3 POP POP POP JUMP JUMPDEST PUSH0 PUSH2 0xA6D PUSH1 0xFF DUP5 AND DUP4 PUSH2 0xC02 JUMP INVALID LOG2 PUSH5 0x6970667358 0x22 SLT KECCAK256 0xC1 PUSH1 0xF9 0xAC MSTORE8 0xB5 SSTORE JUMP PUSH10 0x2A697AD1037DD661DC27 PUSH9 0xCDC3AF2AEC3AF53EE7 0xD0 SIGNEXTEND CALLVALUE PUSH5 0x736F6C6343 STOP ADDMOD SHR STOP CALLER "},"methodIdentifiers":{"ethUsdFeed()":"8009b7bd","getETHPrice()":"a607a8d9","getETHPriceWithEvent()":"5fc4dae2","getHealthFactor(uint256,uint256)":"4d2c872a","getHealthFactorWithEvent(uint256,uint256)":"43f572ad","getUSDCPrice()":"4ad517bc","getUSDCPriceWithEvent()":"38e27fe8","owner()":"8da5cb5b","renounceOwnership()":"715018a6","transferOwnership(address)":"f2fde38b","usdcUsdFeed()":"4d9a75e5"}}}}}