{
  "_format": "hh3-artifact-1",
  "contractName": "UmbraVault",
  "sourceName": "contracts/UmbraVault.sol",
  "abi": [
    {
      "inputs": [
        {
          "internalType": "address",
          "name": "_oracle",
          "type": "address"
        },
        {
          "internalType": "address",
          "name": "_usdc",
          "type": "address"
        }
      ],
      "stateMutability": "nonpayable",
      "type": "constructor"
    },
    {
      "inputs": [],
      "name": "InsufficientCollateral",
      "type": "error"
    },
    {
      "inputs": [],
      "name": "InsufficientReserve",
      "type": "error"
    },
    {
      "inputs": [],
      "name": "NotLiquidatable",
      "type": "error"
    },
    {
      "inputs": [],
      "name": "NotPositionHolder",
      "type": "error"
    },
    {
      "inputs": [
        {
          "internalType": "address",
          "name": "owner",
          "type": "address"
        }
      ],
      "name": "OwnableInvalidOwner",
      "type": "error"
    },
    {
      "inputs": [
        {
          "internalType": "address",
          "name": "account",
          "type": "address"
        }
      ],
      "name": "OwnableUnauthorizedAccount",
      "type": "error"
    },
    {
      "inputs": [],
      "name": "PositionUnhealthy",
      "type": "error"
    },
    {
      "inputs": [],
      "name": "ReentrancyGuardReentrantCall",
      "type": "error"
    },
    {
      "inputs": [],
      "name": "ZeroAmount",
      "type": "error"
    },
    {
      "anonymous": false,
      "inputs": [
        {
          "indexed": true,
          "internalType": "address",
          "name": "user",
          "type": "address"
        },
        {
          "indexed": false,
          "internalType": "uint256",
          "name": "amountUSDC",
          "type": "uint256"
        }
      ],
      "name": "Borrowed",
      "type": "event"
    },
    {
      "anonymous": false,
      "inputs": [
        {
          "indexed": true,
          "internalType": "address",
          "name": "user",
          "type": "address"
        },
        {
          "indexed": false,
          "internalType": "uint256",
          "name": "amountETH",
          "type": "uint256"
        }
      ],
      "name": "CollateralDeposited",
      "type": "event"
    },
    {
      "anonymous": false,
      "inputs": [
        {
          "indexed": true,
          "internalType": "address",
          "name": "user",
          "type": "address"
        },
        {
          "indexed": false,
          "internalType": "uint256",
          "name": "amountETH",
          "type": "uint256"
        }
      ],
      "name": "CollateralWithdrawn",
      "type": "event"
    },
    {
      "anonymous": false,
      "inputs": [
        {
          "indexed": true,
          "internalType": "address",
          "name": "user",
          "type": "address"
        }
      ],
      "name": "LiquidationFlagged",
      "type": "event"
    },
    {
      "anonymous": false,
      "inputs": [
        {
          "indexed": true,
          "internalType": "address",
          "name": "previousOwner",
          "type": "address"
        },
        {
          "indexed": true,
          "internalType": "address",
          "name": "newOwner",
          "type": "address"
        }
      ],
      "name": "OwnershipTransferred",
      "type": "event"
    },
    {
      "anonymous": false,
      "inputs": [
        {
          "indexed": true,
          "internalType": "address",
          "name": "user",
          "type": "address"
        },
        {
          "indexed": false,
          "internalType": "uint256",
          "name": "amountUSDC",
          "type": "uint256"
        }
      ],
      "name": "Repaid",
      "type": "event"
    },
    {
      "anonymous": false,
      "inputs": [
        {
          "indexed": true,
          "internalType": "address",
          "name": "owner",
          "type": "address"
        },
        {
          "indexed": false,
          "internalType": "uint256",
          "name": "amountUSDC",
          "type": "uint256"
        }
      ],
      "name": "ReserveFunded",
      "type": "event"
    },
    {
      "stateMutability": "payable",
      "type": "fallback"
    },
    {
      "inputs": [],
      "name": "ANNUAL_INTEREST_BPS",
      "outputs": [
        {
          "internalType": "uint256",
          "name": "",
          "type": "uint256"
        }
      ],
      "stateMutability": "view",
      "type": "function"
    },
    {
      "inputs": [],
      "name": "BPS_DENOMINATOR",
      "outputs": [
        {
          "internalType": "uint256",
          "name": "",
          "type": "uint256"
        }
      ],
      "stateMutability": "view",
      "type": "function"
    },
    {
      "inputs": [],
      "name": "LIQUIDATION_THRESHOLD",
      "outputs": [
        {
          "internalType": "uint256",
          "name": "",
          "type": "uint256"
        }
      ],
      "stateMutability": "view",
      "type": "function"
    },
    {
      "inputs": [],
      "name": "SECONDS_PER_YEAR",
      "outputs": [
        {
          "internalType": "uint256",
          "name": "",
          "type": "uint256"
        }
      ],
      "stateMutability": "view",
      "type": "function"
    },
    {
      "inputs": [
        {
          "internalType": "address",
          "name": "user",
          "type": "address"
        }
      ],
      "name": "accrueInterest",
      "outputs": [],
      "stateMutability": "nonpayable",
      "type": "function"
    },
    {
      "inputs": [
        {
          "internalType": "uint256",
          "name": "amount",
          "type": "uint256"
        }
      ],
      "name": "borrow",
      "outputs": [],
      "stateMutability": "nonpayable",
      "type": "function"
    },
    {
      "inputs": [],
      "name": "depositCollateral",
      "outputs": [],
      "stateMutability": "payable",
      "type": "function"
    },
    {
      "inputs": [
        {
          "internalType": "address",
          "name": "user",
          "type": "address"
        }
      ],
      "name": "flagForLiquidation",
      "outputs": [],
      "stateMutability": "nonpayable",
      "type": "function"
    },
    {
      "inputs": [
        {
          "internalType": "uint256",
          "name": "amount",
          "type": "uint256"
        }
      ],
      "name": "fundReserve",
      "outputs": [],
      "stateMutability": "nonpayable",
      "type": "function"
    },
    {
      "inputs": [
        {
          "internalType": "address",
          "name": "user",
          "type": "address"
        }
      ],
      "name": "getPosition",
      "outputs": [
        {
          "internalType": "uint256",
          "name": "collateralAmountETH",
          "type": "uint256"
        },
        {
          "internalType": "uint256",
          "name": "debtAmountUSDC",
          "type": "uint256"
        },
        {
          "internalType": "uint256",
          "name": "lastInterestUpdate",
          "type": "uint256"
        },
        {
          "internalType": "bool",
          "name": "isLiquidatable",
          "type": "bool"
        }
      ],
      "stateMutability": "view",
      "type": "function"
    },
    {
      "inputs": [],
      "name": "oracle",
      "outputs": [
        {
          "internalType": "contract IUmbraOracle",
          "name": "",
          "type": "address"
        }
      ],
      "stateMutability": "view",
      "type": "function"
    },
    {
      "inputs": [],
      "name": "owner",
      "outputs": [
        {
          "internalType": "address",
          "name": "",
          "type": "address"
        }
      ],
      "stateMutability": "view",
      "type": "function"
    },
    {
      "inputs": [],
      "name": "renounceOwnership",
      "outputs": [],
      "stateMutability": "nonpayable",
      "type": "function"
    },
    {
      "inputs": [
        {
          "internalType": "uint256",
          "name": "amount",
          "type": "uint256"
        }
      ],
      "name": "repay",
      "outputs": [],
      "stateMutability": "nonpayable",
      "type": "function"
    },
    {
      "inputs": [
        {
          "internalType": "address",
          "name": "newOwner",
          "type": "address"
        }
      ],
      "name": "transferOwnership",
      "outputs": [],
      "stateMutability": "nonpayable",
      "type": "function"
    },
    {
      "inputs": [],
      "name": "usdc",
      "outputs": [
        {
          "internalType": "contract IERC20",
          "name": "",
          "type": "address"
        }
      ],
      "stateMutability": "view",
      "type": "function"
    },
    {
      "inputs": [],
      "name": "usdcReserve",
      "outputs": [
        {
          "internalType": "uint256",
          "name": "",
          "type": "uint256"
        }
      ],
      "stateMutability": "view",
      "type": "function"
    },
    {
      "inputs": [
        {
          "internalType": "uint256",
          "name": "amount",
          "type": "uint256"
        }
      ],
      "name": "withdrawCollateral",
      "outputs": [],
      "stateMutability": "nonpayable",
      "type": "function"
    },
    {
      "stateMutability": "payable",
      "type": "receive"
    }
  ],
  "bytecode": "0x60c060405234801561000f575f5ffd5b5060405161126d38038061126d83398101604081905261002e916101a3565b338061005457604051631e4fbdf760e01b81525f60048201526024015b60405180910390fd5b61005d81610139565b5060017f9b779b17422d0df92223018b32b4d1fa46e071723d6817e2486d003becc55f00556001600160a01b0382166100d85760405162461bcd60e51b815260206004820152601360248201527f5a65726f206f7261636c65206164647265737300000000000000000000000000604482015260640161004b565b6001600160a01b0381166101225760405162461bcd60e51b81526020600482015260116024820152705a65726f2055534443206164647265737360781b604482015260640161004b565b6001600160a01b039182166080521660a0526101d4565b5f80546001600160a01b038381166001600160a01b0319831681178455604051919092169283917f8be0079c531659141344cd1fd0a4f28419497f9722a3daafe3b4186f6b6457e09190a35050565b80516001600160a01b038116811461019e575f5ffd5b919050565b5f5f604083850312156101b4575f5ffd5b6101bd83610188565b91506101cb60208401610188565b90509250929050565b60805160a05161104e61021f5f395f818161017701528181610452015281816109ec0152610d2201525f818161025e0152818161062f015281816108a70152610c52015261104e5ff3fe6080604052600436106100ff575f3560e01c80637dc0d1d01161008e578063b5f397e711610060578063b5f397e7146102cf578063c5ebeaec146102e4578063e1a4521814610303578063e6a69ab814610318578063f2fde38b1461032f57005b80637dc0d1d01461024d5780638da5cb5b1461028057806390a8ae9b1461029c5780639198e515146102b057005b80636a5809cc116100d25780636a5809cc146101d05780636f758140146101f3578063715018a6146101fb578063735ebc441461020f57806375c542241461022e57005b806316c1973914610101578063371fd8e6146101475780633e413bee146101665780636112fe2e146101b1575b005b34801561010c575f5ffd5b5061012061011b366004610f08565b61034e565b60408051948552602085019390935291830152151560608201526080015b60405180910390f35b348015610152575f5ffd5b506100ff610161366004610f35565b6103d2565b348015610171575f5ffd5b506101997f000000000000000000000000000000000000000000000000000000000000000081565b6040516001600160a01b03909116815260200161013e565b3480156101bc575f5ffd5b506100ff6101cb366004610f35565b610591565b3480156101db575f5ffd5b506101e560025481565b60405190815260200161013e565b6100ff6107b8565b348015610206575f5ffd5b506100ff61085b565b34801561021a575f5ffd5b506100ff610229366004610f08565b61086c565b348015610239575f5ffd5b506100ff610248366004610f35565b61099a565b348015610258575f5ffd5b506101997f000000000000000000000000000000000000000000000000000000000000000081565b34801561028b575f5ffd5b505f546001600160a01b0316610199565b3480156102a7575f5ffd5b506101e5606481565b3480156102bb575f5ffd5b506100ff6102ca366004610f08565b610b06565b3480156102da575f5ffd5b506101e56101f481565b3480156102ef575f5ffd5b506100ff6102fe366004610f35565b610bb9565b34801561030e575f5ffd5b506101e561271081565b348015610323575f5ffd5b506101e56301e1338081565b34801561033a575f5ffd5b506100ff610349366004610f08565b610e09565b5f80808084336001600160a01b0382161480159061037657505f546001600160a01b03163314155b1561039457604051633eed7b6b60e11b815260040160405180910390fd5b505050506001600160a01b03919091165f90815260016020819052604090912080549181015460028201546003909201549294909350909160ff1690565b6103da610e43565b336103e481610b06565b815f0361040457604051631f2a200560e01b815260040160405180910390fd5b335f9081526001602081905260408220908101549091908411610427578361042d565b81600101545b6040516323b872dd60e01b8152336004820152306024820152604481018290529091507f00000000000000000000000000000000000000000000000000000000000000006001600160a01b0316906323b872dd906064016020604051808303815f875af11580156104a0573d5f5f3e3d5ffd5b505050506040513d601f19601f820116820180604052508101906104c49190610f4c565b6105105760405162461bcd60e51b81526020600482015260186024820152771554d110c81d1c985b9cd9995c919c9bdb4819985a5b195960421b60448201526064015b60405180910390fd5b80826001015f8282546105239190610f7f565b925050819055508060025f82825461053b9190610f98565b909155505060405181815233907f0516911bcc3a0a7412a44601057c0a0a1ec628bde049a84284bc4288665344889060200160405180910390a250505061058e60015f516020610ff95f395f51905f5255565b50565b610599610e43565b336105a381610b06565b815f036105c357604051631f2a200560e01b815260040160405180910390fd5b335f90815260016020526040902080548311156105f357604051633a23d82560e01b815260040160405180910390fd5b82815f015f8282546106059190610f7f565b909155505080546001820154604051632696439560e11b8152600481019290925260248201525f907f00000000000000000000000000000000000000000000000000000000000000006001600160a01b031690634d2c872a90604401602060405180830381865afa15801561067c573d5f5f3e3d5ffd5b505050506040513d601f19601f820116820180604052508101906106a09190610fab565b905060648110156106dd5783825f015f8282546106bd9190610f98565b92505081905550604051631d9d79c160e01b815260040160405180910390fd5b6040515f90339086908381818185875af1925050503d805f811461071c576040519150601f19603f3d011682016040523d82523d5f602084013e610721565b606091505b50509050806107685760405162461bcd60e51b8152602060048201526013602482015272115512081d1c985b9cd9995c8819985a5b1959606a1b6044820152606401610507565b60405185815233907fc30fcfbcaac9e0deffa719714eaa82396ff506a0d0d0eebe170830177288715d906020015b60405180910390a25050505061058e60015f516020610ff95f395f51905f5255565b6107c0610e43565b336107ca81610b06565b345f036107ea57604051631f2a200560e01b815260040160405180910390fd5b335f9081526001602052604081208054349290610808908490610f98565b909155505060405134815233907fd7243f6f8212d5188fd054141cf6ea89cfc0d91facb8c3afe2f88a13584801429060200160405180910390a25061085960015f516020610ff95f395f51905f5255565b565b610863610e5e565b6108595f610e8a565b8061087681610b06565b6001600160a01b038083165f9081526001602081905260408083208054928101549151632696439560e11b815290947f00000000000000000000000000000000000000000000000000000000000000001692634d2c872a926108e392600401918252602082015260400190565b602060405180830381865afa1580156108fe573d5f5f3e3d5ffd5b505050506040513d601f19601f820116820180604052508101906109229190610fab565b90506064811061094557604051636ef5bcdd60e11b815260040160405180910390fd5b600382015460ff166109945760038201805460ff191660011790556040516001600160a01b038516907f11bb722a5a917c3ef38258c8128526d12baa42eeca2a2d861e3e501229607ed9905f90a25b50505050565b6109a2610e5e565b6109aa610e43565b805f036109ca57604051631f2a200560e01b815260040160405180910390fd5b6040516323b872dd60e01b8152336004820152306024820152604481018290527f00000000000000000000000000000000000000000000000000000000000000006001600160a01b0316906323b872dd906064016020604051808303815f875af1158015610a3a573d5f5f3e3d5ffd5b505050506040513d601f19601f82011682018060405250810190610a5e9190610f4c565b610aa55760405162461bcd60e51b81526020600482015260186024820152771554d110c81d1c985b9cd9995c919c9bdb4819985a5b195960421b6044820152606401610507565b8060025f828254610ab69190610f98565b909155505060405181815233907fb52b99b9e83551fcbd069b559cc3e823e2a1a3bad8ece46561ea77524394c8509060200160405180910390a261058e60015f516020610ff95f395f51905f5255565b6001600160a01b0381165f9081526001602052604081206002810154909142919003610b355760029091015550565b81600101545f03610b495760029091015550565b5f826002015482610b5a9190610f7f565b90505f610b6d6127106301e13380610fc2565b826101f48660010154610b809190610fc2565b610b8a9190610fc2565b610b949190610fd9565b905080846001015f828254610ba99190610f98565b9091555050505060029091015550565b610bc1610e43565b33610bcb81610b06565b815f03610beb57604051631f2a200560e01b815260040160405180910390fd5b335f908152600160205260409020600254831115610c1c576040516328b35f2160e01b815260040160405180910390fd5b5f838260010154610c2d9190610f98565b8254604051632696439560e11b81526004810191909152602481018290529091505f907f00000000000000000000000000000000000000000000000000000000000000006001600160a01b031690634d2c872a90604401602060405180830381865afa158015610c9f573d5f5f3e3d5ffd5b505050506040513d601f19601f82011682018060405250810190610cc39190610fab565b90506064811015610ce757604051631d9d79c160e01b815260040160405180910390fd5b8183600101819055508460025f828254610d019190610f7f565b909155505060405163a9059cbb60e01b8152336004820152602481018690527f00000000000000000000000000000000000000000000000000000000000000006001600160a01b03169063a9059cbb906044016020604051808303815f875af1158015610d70573d5f5f3e3d5ffd5b505050506040513d601f19601f82011682018060405250810190610d949190610f4c565b610dd75760405162461bcd60e51b81526020600482015260146024820152731554d110c81d1c985b9cd9995c8819985a5b195960621b6044820152606401610507565b60405185815233907fac59582e5396aca512fa873a2047e7f4c80f8f55d4a06cb34a78a0187f62719f90602001610796565b610e11610e5e565b6001600160a01b038116610e3a57604051631e4fbdf760e01b81525f6004820152602401610507565b61058e81610e8a565b610e4b610ed9565b60025f516020610ff95f395f51905f5255565b5f546001600160a01b031633146108595760405163118cdaa760e01b8152336004820152602401610507565b5f80546001600160a01b038381166001600160a01b0319831681178455604051919092169283917f8be0079c531659141344cd1fd0a4f28419497f9722a3daafe3b4186f6b6457e09190a35050565b5f516020610ff95f395f51905f525460020361085957604051633ee5aeb560e01b815260040160405180910390fd5b5f60208284031215610f18575f5ffd5b81356001600160a01b0381168114610f2e575f5ffd5b9392505050565b5f60208284031215610f45575f5ffd5b5035919050565b5f60208284031215610f5c575f5ffd5b81518015158114610f2e575f5ffd5b634e487b7160e01b5f52601160045260245ffd5b81810381811115610f9257610f92610f6b565b92915050565b80820180821115610f9257610f92610f6b565b5f60208284031215610fbb575f5ffd5b5051919050565b8082028115828204841417610f9257610f92610f6b565b5f82610ff357634e487b7160e01b5f52601260045260245ffd5b50049056fe9b779b17422d0df92223018b32b4d1fa46e071723d6817e2486d003becc55f00a264697066735822122092449e7cc447454e3accd1267c2779548e5e78a423158a45ed4bfbbe5ea8375364736f6c634300081c0033",
  "linkReferences": {},
  "deployedLinkReferences": {},
  "immutableReferences": {
    "542": [
      {
        "length": 32,
        "start": 606
      },
      {
        "length": 32,
        "start": 1583
      },
      {
        "length": 32,
        "start": 2215
      },
      {
        "length": 32,
        "start": 3154
      }
    ],
    "545": [
      {
        "length": 32,
        "start": 375
      },
      {
        "length": 32,
        "start": 1106
      },
      {
        "length": 32,
        "start": 2540
      },
      {
        "length": 32,
        "start": 3362
      }
    ]
  },
  "inputSourceName": "project/contracts/UmbraVault.sol",
  "buildInfoId": "solc-0_8_28-2cda2712ce0fadff02368f461db745235c94eaaf"
}