{
  "_format": "hh3-artifact-1",
  "contractName": "UmbraOracle",
  "sourceName": "contracts/UmbraOracle.sol",
  "abi": [
    {
      "inputs": [
        {
          "internalType": "address",
          "name": "_ethUsdFeed",
          "type": "address"
        },
        {
          "internalType": "address",
          "name": "_usdcUsdFeed",
          "type": "address"
        }
      ],
      "stateMutability": "nonpayable",
      "type": "constructor"
    },
    {
      "inputs": [
        {
          "internalType": "address",
          "name": "owner",
          "type": "address"
        }
      ],
      "name": "OwnableInvalidOwner",
      "type": "error"
    },
    {
      "inputs": [
        {
          "internalType": "address",
          "name": "account",
          "type": "address"
        }
      ],
      "name": "OwnableUnauthorizedAccount",
      "type": "error"
    },
    {
      "inputs": [
        {
          "internalType": "string",
          "name": "feed",
          "type": "string"
        },
        {
          "internalType": "uint256",
          "name": "updatedAt",
          "type": "uint256"
        },
        {
          "internalType": "uint256",
          "name": "currentTime",
          "type": "uint256"
        }
      ],
      "name": "StalePrice",
      "type": "error"
    },
    {
      "anonymous": false,
      "inputs": [
        {
          "indexed": false,
          "internalType": "uint256",
          "name": "price",
          "type": "uint256"
        },
        {
          "indexed": false,
          "internalType": "uint256",
          "name": "updatedAt",
          "type": "uint256"
        }
      ],
      "name": "ETHPriceQueried",
      "type": "event"
    },
    {
      "anonymous": false,
      "inputs": [
        {
          "indexed": true,
          "internalType": "address",
          "name": "user",
          "type": "address"
        },
        {
          "indexed": false,
          "internalType": "uint256",
          "name": "collateralAmountETH",
          "type": "uint256"
        },
        {
          "indexed": false,
          "internalType": "uint256",
          "name": "debtAmountUSDC",
          "type": "uint256"
        },
        {
          "indexed": false,
          "internalType": "uint256",
          "name": "healthFactor",
          "type": "uint256"
        }
      ],
      "name": "HealthFactorCalculated",
      "type": "event"
    },
    {
      "anonymous": false,
      "inputs": [
        {
          "indexed": true,
          "internalType": "address",
          "name": "previousOwner",
          "type": "address"
        },
        {
          "indexed": true,
          "internalType": "address",
          "name": "newOwner",
          "type": "address"
        }
      ],
      "name": "OwnershipTransferred",
      "type": "event"
    },
    {
      "anonymous": false,
      "inputs": [
        {
          "indexed": false,
          "internalType": "uint256",
          "name": "price",
          "type": "uint256"
        },
        {
          "indexed": false,
          "internalType": "uint256",
          "name": "updatedAt",
          "type": "uint256"
        }
      ],
      "name": "USDCPriceQueried",
      "type": "event"
    },
    {
      "inputs": [],
      "name": "ethUsdFeed",
      "outputs": [
        {
          "internalType": "contract AggregatorV3Interface",
          "name": "",
          "type": "address"
        }
      ],
      "stateMutability": "view",
      "type": "function"
    },
    {
      "inputs": [],
      "name": "getETHPrice",
      "outputs": [
        {
          "internalType": "uint256",
          "name": "price",
          "type": "uint256"
        }
      ],
      "stateMutability": "view",
      "type": "function"
    },
    {
      "inputs": [],
      "name": "getETHPriceWithEvent",
      "outputs": [
        {
          "internalType": "uint256",
          "name": "price",
          "type": "uint256"
        }
      ],
      "stateMutability": "nonpayable",
      "type": "function"
    },
    {
      "inputs": [
        {
          "internalType": "uint256",
          "name": "collateralAmountETH",
          "type": "uint256"
        },
        {
          "internalType": "uint256",
          "name": "debtAmountUSDC",
          "type": "uint256"
        }
      ],
      "name": "getHealthFactor",
      "outputs": [
        {
          "internalType": "uint256",
          "name": "healthFactor",
          "type": "uint256"
        }
      ],
      "stateMutability": "view",
      "type": "function"
    },
    {
      "inputs": [
        {
          "internalType": "uint256",
          "name": "collateralAmountETH",
          "type": "uint256"
        },
        {
          "internalType": "uint256",
          "name": "debtAmountUSDC",
          "type": "uint256"
        }
      ],
      "name": "getHealthFactorWithEvent",
      "outputs": [
        {
          "internalType": "uint256",
          "name": "healthFactor",
          "type": "uint256"
        }
      ],
      "stateMutability": "nonpayable",
      "type": "function"
    },
    {
      "inputs": [],
      "name": "getUSDCPrice",
      "outputs": [
        {
          "internalType": "uint256",
          "name": "price",
          "type": "uint256"
        }
      ],
      "stateMutability": "view",
      "type": "function"
    },
    {
      "inputs": [],
      "name": "getUSDCPriceWithEvent",
      "outputs": [
        {
          "internalType": "uint256",
          "name": "price",
          "type": "uint256"
        }
      ],
      "stateMutability": "nonpayable",
      "type": "function"
    },
    {
      "inputs": [],
      "name": "owner",
      "outputs": [
        {
          "internalType": "address",
          "name": "",
          "type": "address"
        }
      ],
      "stateMutability": "view",
      "type": "function"
    },
    {
      "inputs": [],
      "name": "renounceOwnership",
      "outputs": [],
      "stateMutability": "nonpayable",
      "type": "function"
    },
    {
      "inputs": [
        {
          "internalType": "address",
          "name": "newOwner",
          "type": "address"
        }
      ],
      "name": "transferOwnership",
      "outputs": [],
      "stateMutability": "nonpayable",
      "type": "function"
    },
    {
      "inputs": [],
      "name": "usdcUsdFeed",
      "outputs": [
        {
          "internalType": "contract AggregatorV3Interface",
          "name": "",
          "type": "address"
        }
      ],
      "stateMutability": "view",
      "type": "function"
    }
  ],
  "bytecode": "0x60c060405234801561000f575f5ffd5b50604051610f08380380610f0883398101604081905261002e9161018b565b338061005457604051631e4fbdf760e01b81525f60048201526024015b60405180910390fd5b61005d81610121565b506001600160a01b0382166100b45760405162461bcd60e51b815260206004820152601c60248201527f496e76616c6964204554482f5553442066656564206164647265737300000000604482015260640161004b565b6001600160a01b03811661010a5760405162461bcd60e51b815260206004820152601d60248201527f496e76616c696420555344432f55534420666565642061646472657373000000604482015260640161004b565b6001600160a01b039182166080521660a0526101bc565b5f80546001600160a01b038381166001600160a01b0319831681178455604051919092169283917f8be0079c531659141344cd1fd0a4f28419497f9722a3daafe3b4186f6b6457e09190a35050565b80516001600160a01b0381168114610186575f5ffd5b919050565b5f5f6040838503121561019c575f5ffd5b6101a583610170565b91506101b360208401610170565b90509250929050565b60805160a051610ce66102225f395f818160f80152818161019c0152818161023901528181610337015281816103cf015261078901525f8181610149015281816101ed015281816103830152818161048a015281816104e701526107120152610ce65ff3fe608060405234801561000f575f5ffd5b50600436106100a6575f3560e01c80635fc4dae21161006e5780635fc4dae214610132578063715018a61461013a5780638009b7bd146101445780638da5cb5b1461016b578063a607a8d91461017b578063f2fde38b14610183575f5ffd5b806338e27fe8146100aa57806343f572ad146100c55780634ad517bc146100d85780634d2c872a146100e05780634d9a75e5146100f3575b5f5ffd5b6100b2610196565b6040519081526020015b60405180910390f35b6100b26100d3366004610a27565b6101e6565b6100b2610331565b6100b26100ee366004610a27565b61037c565b61011a7f000000000000000000000000000000000000000000000000000000000000000081565b6040516001600160a01b0390911681526020016100bc565b6100b2610484565b6101426104ce565b005b61011a7f000000000000000000000000000000000000000000000000000000000000000081565b5f546001600160a01b031661011a565b6100b26104e1565b610142610191366004610a47565b61052b565b5f6101e17f0000000000000000000000000000000000000000000000000000000000000000604051806040016040528060088152602001671554d110cbd554d160c21b81525061056d565b905090565b5f5f6102317f0000000000000000000000000000000000000000000000000000000000000000604051806040016040528060078152602001661155120bd554d160ca1b81525061056d565b90505f61027e7f0000000000000000000000000000000000000000000000000000000000000000604051806040016040528060088152602001671554d110cbd554d160c21b81525061056d565b90505f670de0b6b3a76400006102948488610a88565b61029e9190610aa5565b90505f620f42406102af8488610a88565b6102b99190610aa5565b9050805f036102cb575f1994506102e4565b806102d7836064610a88565b6102e19190610aa5565b94505b604080518881526020810188905290810186905233907f96df9b99931636b730287949d80832331a9fd2fd69bc2bb6ce2145403af806889060600160405180910390a25050505092915050565b5f6101e17f0000000000000000000000000000000000000000000000000000000000000000604051806040016040528060088152602001671554d110cbd554d160c21b815250610803565b5f5f6103c77f0000000000000000000000000000000000000000000000000000000000000000604051806040016040528060078152602001661155120bd554d160ca1b815250610803565b90505f6104147f0000000000000000000000000000000000000000000000000000000000000000604051806040016040528060088152602001671554d110cbd554d160c21b815250610803565b90505f670de0b6b3a764000061042a8488610a88565b6104349190610aa5565b90505f620f42406104458488610a88565b61044f9190610aa5565b9050805f03610461575f19945061047a565b8061046d836064610a88565b6104779190610aa5565b94505b5050505092915050565b5f6101e17f0000000000000000000000000000000000000000000000000000000000000000604051806040016040528060078152602001661155120bd554d160ca1b81525061056d565b6104d66109ac565b6104df5f6109d8565b565b5f6101e17f0000000000000000000000000000000000000000000000000000000000000000604051806040016040528060078152602001661155120bd554d160ca1b815250610803565b6105336109ac565b6001600160a01b03811661056157604051631e4fbdf760e01b81525f60048201526024015b60405180910390fd5b61056a816109d8565b50565b5f5f5f846001600160a01b031663feaf968c6040518163ffffffff1660e01b815260040160a060405180830381865afa1580156105ac573d5f5f3e3d5ffd5b505050506040513d601f19601f820116820180604052508101906105d09190610ae2565b50935050925050610e1081426105e69190610b30565b111561060b5783814260405163871e519b60e01b815260040161055893929190610b43565b5f821361064a5760405162461bcd60e51b815260206004820152600d60248201526c496e76616c696420707269636560981b6044820152606401610558565b5f856001600160a01b031663313ce5676040518163ffffffff1660e01b8152600401602060405180830381865afa158015610687573d5f5f3e3d5ffd5b505050506040513d601f19601f820116820180604052508101906106ab9190610b86565b905060088160ff1611156106e0576106c4600882610ba6565b6106cf90600a610ca2565b6106d99084610aa5565b9350610710565b60088160ff16101561070c576106f7816008610ba6565b61070290600a610ca2565b6106d99084610a88565b8293505b7f00000000000000000000000000000000000000000000000000000000000000006001600160a01b0316866001600160a01b0316036107875760408051858152602081018490527f7fea984edf6785d465799ea19d2f922ca3683710265b3aa7e75de0d53b330c9f910160405180910390a16107fa565b7f00000000000000000000000000000000000000000000000000000000000000006001600160a01b0316866001600160a01b0316036107fa5760408051858152602081018490527ff022fcf06928eb609600b6e2410e57eb7ae0f3252e49455f8752df2f63718db9910160405180910390a15b50505092915050565b5f5f5f846001600160a01b031663feaf968c6040518163ffffffff1660e01b815260040160a060405180830381865afa158015610842573d5f5f3e3d5ffd5b505050506040513d601f19601f820116820180604052508101906108669190610ae2565b50935050925050610e10814261087c9190610b30565b11156108a15783814260405163871e519b60e01b815260040161055893929190610b43565b5f82136108e05760405162461bcd60e51b815260206004820152600d60248201526c496e76616c696420707269636560981b6044820152606401610558565b5f856001600160a01b031663313ce5676040518163ffffffff1660e01b8152600401602060405180830381865afa15801561091d573d5f5f3e3d5ffd5b505050506040513d601f19601f820116820180604052508101906109419190610b86565b905060088160ff1611156109765761095a600882610ba6565b61096590600a610ca2565b61096f9084610aa5565b93506107fa565b60088160ff1610156109a25761098d816008610ba6565b61099890600a610ca2565b61096f9084610a88565b5090949350505050565b5f546001600160a01b031633146104df5760405163118cdaa760e01b8152336004820152602401610558565b5f80546001600160a01b038381166001600160a01b0319831681178455604051919092169283917f8be0079c531659141344cd1fd0a4f28419497f9722a3daafe3b4186f6b6457e09190a35050565b5f5f60408385031215610a38575f5ffd5b50508035926020909101359150565b5f60208284031215610a57575f5ffd5b81356001600160a01b0381168114610a6d575f5ffd5b9392505050565b634e487b7160e01b5f52601160045260245ffd5b8082028115828204841417610a9f57610a9f610a74565b92915050565b5f82610abf57634e487b7160e01b5f52601260045260245ffd5b500490565b805169ffffffffffffffffffff81168114610add575f5ffd5b919050565b5f5f5f5f5f60a08688031215610af6575f5ffd5b610aff86610ac4565b60208701516040880151606089015192975090955093509150610b2460808701610ac4565b90509295509295909350565b81810381811115610a9f57610a9f610a74565b606081525f84518060608401528060208701608085015e5f608082850101526080601f19601f830116840101915050836020830152826040830152949350505050565b5f60208284031215610b96575f5ffd5b815160ff81168114610a6d575f5ffd5b60ff8281168282160390811115610a9f57610a9f610a74565b6001815b6001841115610bfa57808504811115610bde57610bde610a74565b6001841615610bec57908102905b60019390931c928002610bc3565b935093915050565b5f82610c1057506001610a9f565b81610c1c57505f610a9f565b8160018114610c325760028114610c3c57610c58565b6001915050610a9f565b60ff841115610c4d57610c4d610a74565b50506001821b610a9f565b5060208310610133831016604e8410600b8410161715610c7b575081810a610a9f565b610c875f198484610bbf565b805f1904821115610c9a57610c9a610a74565b029392505050565b5f610a6d60ff841683610c0256fea2646970667358221220c160f9ac53b55556692a697ad1037dd661dc2768cdc3af2aec3af53ee7d00b3464736f6c634300081c0033",
  "linkReferences": {},
  "deployedLinkReferences": {},
  "immutableReferences": {
    "241": [
      {
        "length": 32,
        "start": 329
      },
      {
        "length": 32,
        "start": 493
      },
      {
        "length": 32,
        "start": 899
      },
      {
        "length": 32,
        "start": 1162
      },
      {
        "length": 32,
        "start": 1255
      },
      {
        "length": 32,
        "start": 1810
      }
    ],
    "244": [
      {
        "length": 32,
        "start": 248
      },
      {
        "length": 32,
        "start": 412
      },
      {
        "length": 32,
        "start": 569
      },
      {
        "length": 32,
        "start": 823
      },
      {
        "length": 32,
        "start": 975
      },
      {
        "length": 32,
        "start": 1929
      }
    ]
  },
  "inputSourceName": "project/contracts/UmbraOracle.sol",
  "buildInfoId": "solc-0_8_28-eadd916c2e7609a14f2c6145853cfd42413faca5"
}