{
  "_format": "hh3-artifact-1",
  "contractName": "UmbraLiquidator",
  "sourceName": "contracts/UmbraLiquidator.sol",
  "abi": [
    {
      "inputs": [
        {
          "internalType": "address",
          "name": "_vaultAddress",
          "type": "address"
        }
      ],
      "stateMutability": "nonpayable",
      "type": "constructor"
    },
    {
      "inputs": [],
      "name": "AuctionAlreadyExists",
      "type": "error"
    },
    {
      "inputs": [],
      "name": "AuctionAlreadySettled",
      "type": "error"
    },
    {
      "inputs": [],
      "name": "AuctionNotActive",
      "type": "error"
    },
    {
      "inputs": [],
      "name": "AuctionNotEnded",
      "type": "error"
    },
    {
      "inputs": [],
      "name": "OnlyVault",
      "type": "error"
    },
    {
      "inputs": [
        {
          "internalType": "address",
          "name": "owner",
          "type": "address"
        }
      ],
      "name": "OwnableInvalidOwner",
      "type": "error"
    },
    {
      "inputs": [
        {
          "internalType": "address",
          "name": "account",
          "type": "address"
        }
      ],
      "name": "OwnableUnauthorizedAccount",
      "type": "error"
    },
    {
      "inputs": [],
      "name": "ReentrancyGuardReentrantCall",
      "type": "error"
    },
    {
      "anonymous": false,
      "inputs": [
        {
          "indexed": true,
          "internalType": "address",
          "name": "borrower",
          "type": "address"
        },
        {
          "indexed": true,
          "internalType": "address",
          "name": "winner",
          "type": "address"
        },
        {
          "indexed": false,
          "internalType": "uint256",
          "name": "winningBid",
          "type": "uint256"
        }
      ],
      "name": "AuctionSettled",
      "type": "event"
    },
    {
      "anonymous": false,
      "inputs": [
        {
          "indexed": true,
          "internalType": "address",
          "name": "borrower",
          "type": "address"
        },
        {
          "indexed": false,
          "internalType": "uint256",
          "name": "endTime",
          "type": "uint256"
        }
      ],
      "name": "AuctionStarted",
      "type": "event"
    },
    {
      "anonymous": false,
      "inputs": [
        {
          "indexed": true,
          "internalType": "address",
          "name": "borrower",
          "type": "address"
        },
        {
          "indexed": true,
          "internalType": "address",
          "name": "bidder",
          "type": "address"
        },
        {
          "indexed": false,
          "internalType": "bytes32",
          "name": "bidId",
          "type": "bytes32"
        }
      ],
      "name": "BidSubmitted",
      "type": "event"
    },
    {
      "anonymous": false,
      "inputs": [
        {
          "indexed": true,
          "internalType": "address",
          "name": "previousOwner",
          "type": "address"
        },
        {
          "indexed": true,
          "internalType": "address",
          "name": "newOwner",
          "type": "address"
        }
      ],
      "name": "OwnershipTransferred",
      "type": "event"
    },
    {
      "inputs": [
        {
          "internalType": "address",
          "name": "",
          "type": "address"
        },
        {
          "internalType": "uint256",
          "name": "",
          "type": "uint256"
        }
      ],
      "name": "auctionBids",
      "outputs": [
        {
          "internalType": "bytes32",
          "name": "",
          "type": "bytes32"
        }
      ],
      "stateMutability": "view",
      "type": "function"
    },
    {
      "inputs": [
        {
          "internalType": "address",
          "name": "",
          "type": "address"
        }
      ],
      "name": "auctions",
      "outputs": [
        {
          "internalType": "address",
          "name": "borrower",
          "type": "address"
        },
        {
          "internalType": "uint256",
          "name": "startTime",
          "type": "uint256"
        },
        {
          "internalType": "uint256",
          "name": "endTime",
          "type": "uint256"
        },
        {
          "internalType": "bool",
          "name": "settled",
          "type": "bool"
        },
        {
          "internalType": "address",
          "name": "winner",
          "type": "address"
        },
        {
          "internalType": "uint256",
          "name": "winningBid",
          "type": "uint256"
        },
        {
          "internalType": "uint256",
          "name": "bidCount",
          "type": "uint256"
        }
      ],
      "stateMutability": "view",
      "type": "function"
    },
    {
      "inputs": [
        {
          "internalType": "bytes32",
          "name": "",
          "type": "bytes32"
        }
      ],
      "name": "bidder",
      "outputs": [
        {
          "internalType": "address",
          "name": "",
          "type": "address"
        }
      ],
      "stateMutability": "view",
      "type": "function"
    },
    {
      "inputs": [
        {
          "internalType": "bytes32",
          "name": "",
          "type": "bytes32"
        }
      ],
      "name": "bids",
      "outputs": [
        {
          "internalType": "uint256",
          "name": "",
          "type": "uint256"
        }
      ],
      "stateMutability": "view",
      "type": "function"
    },
    {
      "inputs": [
        {
          "internalType": "address",
          "name": "borrower",
          "type": "address"
        }
      ],
      "name": "getAuction",
      "outputs": [
        {
          "components": [
            {
              "internalType": "address",
              "name": "borrower",
              "type": "address"
            },
            {
              "internalType": "uint256",
              "name": "startTime",
              "type": "uint256"
            },
            {
              "internalType": "uint256",
              "name": "endTime",
              "type": "uint256"
            },
            {
              "internalType": "bool",
              "name": "settled",
              "type": "bool"
            },
            {
              "internalType": "address",
              "name": "winner",
              "type": "address"
            },
            {
              "internalType": "uint256",
              "name": "winningBid",
              "type": "uint256"
            },
            {
              "internalType": "uint256",
              "name": "bidCount",
              "type": "uint256"
            }
          ],
          "internalType": "struct UmbraLiquidator.Auction",
          "name": "",
          "type": "tuple"
        }
      ],
      "stateMutability": "view",
      "type": "function"
    },
    {
      "inputs": [
        {
          "internalType": "address",
          "name": "borrower",
          "type": "address"
        }
      ],
      "name": "getAuctionBidIds",
      "outputs": [
        {
          "internalType": "bytes32[]",
          "name": "",
          "type": "bytes32[]"
        }
      ],
      "stateMutability": "view",
      "type": "function"
    },
    {
      "inputs": [
        {
          "internalType": "bytes32",
          "name": "bidId",
          "type": "bytes32"
        }
      ],
      "name": "getBid",
      "outputs": [
        {
          "internalType": "uint256",
          "name": "",
          "type": "uint256"
        }
      ],
      "stateMutability": "view",
      "type": "function"
    },
    {
      "inputs": [],
      "name": "owner",
      "outputs": [
        {
          "internalType": "address",
          "name": "",
          "type": "address"
        }
      ],
      "stateMutability": "view",
      "type": "function"
    },
    {
      "inputs": [],
      "name": "renounceOwnership",
      "outputs": [],
      "stateMutability": "nonpayable",
      "type": "function"
    },
    {
      "inputs": [
        {
          "internalType": "address",
          "name": "borrower",
          "type": "address"
        }
      ],
      "name": "settleAuction",
      "outputs": [],
      "stateMutability": "nonpayable",
      "type": "function"
    },
    {
      "inputs": [
        {
          "internalType": "address",
          "name": "borrower",
          "type": "address"
        }
      ],
      "name": "startAuction",
      "outputs": [],
      "stateMutability": "nonpayable",
      "type": "function"
    },
    {
      "inputs": [
        {
          "internalType": "address",
          "name": "borrower",
          "type": "address"
        },
        {
          "internalType": "uint256",
          "name": "bidAmount",
          "type": "uint256"
        }
      ],
      "name": "submitBid",
      "outputs": [],
      "stateMutability": "nonpayable",
      "type": "function"
    },
    {
      "inputs": [
        {
          "internalType": "address",
          "name": "newOwner",
          "type": "address"
        }
      ],
      "name": "transferOwnership",
      "outputs": [],
      "stateMutability": "nonpayable",
      "type": "function"
    },
    {
      "inputs": [],
      "name": "vaultAddress",
      "outputs": [
        {
          "internalType": "address",
          "name": "",
          "type": "address"
        }
      ],
      "stateMutability": "view",
      "type": "function"
    }
  ],
  "bytecode": "0x60a060405234801561000f575f5ffd5b50604051610d55380380610d5583398101604081905261002e9161012d565b338061005457604051631e4fbdf760e01b81525f60048201526024015b60405180910390fd5b61005d816100de565b5060017f9b779b17422d0df92223018b32b4d1fa46e071723d6817e2486d003becc55f00556001600160a01b0381166100cd5760405162461bcd60e51b81526020600482015260126024820152715661756c742061646472657373207a65726f60701b604482015260640161004b565b6001600160a01b031660805261015a565b5f80546001600160a01b038381166001600160a01b0319831681178455604051919092169283917f8be0079c531659141344cd1fd0a4f28419497f9722a3daafe3b4186f6b6457e09190a35050565b5f6020828403121561013d575f5ffd5b81516001600160a01b0381168114610153575f5ffd5b9392505050565b608051610bdc6101795f395f81816101dd015261054e0152610bdc5ff3fe608060405234801561000f575f5ffd5b50600436106100e5575f3560e01c80638da5cb5b11610088578063e90acd5311610063578063e90acd53146102e1578063f032813a14610309578063f2a4f2d614610329578063f2fde38b1461033c575f5ffd5b80638da5cb5b146102935780638f98eeda146102a357806391704e1e146102c2575f5ffd5b80634075fa0f116100c35780634075fa0f146101c5578063430bf08a146101d8578063715018a61461021757806379deae7b1461021f575f5ffd5b80631d59410a146100e9578063299a0e1e1461018f5780633b4fb547146101b0575b5f5ffd5b6101436100f7366004610aac565b600160208190525f91825260409091208054918101546002820154600383015460048401546005909401546001600160a01b03958616959394929360ff83169361010090930416919087565b604080516001600160a01b03988916815260208101979097528601949094529115156060850152909316608083015260a082019290925260c081019190915260e0015b60405180910390f35b6101a261019d366004610acc565b61034f565b604051908152602001610186565b6101c36101be366004610aac565b61037a565b005b6101c36101d3366004610aac565b610543565b6101ff7f000000000000000000000000000000000000000000000000000000000000000081565b6040516001600160a01b039091168152602001610186565b6101c36106df565b61023261022d366004610aac565b6106f2565b604051610186919081516001600160a01b03908116825260208084015190830152604080840151908301526060808401511515908301526080808401519091169082015260a0828101519082015260c0918201519181019190915260e00190565b5f546001600160a01b03166101ff565b6101a26102b1366004610af4565b60026020525f908152604090205481565b6101a26102d0366004610af4565b5f9081526002602052604090205490565b6101ff6102ef366004610af4565b60036020525f90815260409020546001600160a01b031681565b61031c610317366004610aac565b6107b4565b6040516101869190610b0b565b6101c3610337366004610acc565b61081d565b6101c361034a366004610aac565b61098d565b6004602052815f5260405f208181548110610368575f80fd5b905f5260205f20015f91509150505481565b6103826109cc565b6001600160a01b0381165f9081526001602081905260408220908101549091036103bf576040516334dc687f60e11b815260040160405180910390fd5b600381015460ff16156103e557604051634f4fee1760e01b815260040160405180910390fd5b806002015442101561040a57604051636463738960e01b815260040160405180910390fd5b6001600160a01b0382165f9081526004602052604081209080805b83548110156104ad575f60025f86848154811061044457610444610b4d565b905f5260205f20015481526020019081526020015f20549050828111156104a45780925060035f86848154811061047d5761047d610b4d565b5f91825260208083209091015483528201929092526040019020546001600160a01b031693505b50600101610425565b506003840180546004860183905560ff196001600160a01b038086166101008102929092166001600160a81b031990931692909217600117909255604051908716907f451a20205f335d702bd59a3ab3774aa167020f7812aa82f59eff9286df8ed0db9061051e9085815260200190565b60405180910390a35050505061054060015f516020610b875f395f51905f5255565b50565b336001600160a01b037f0000000000000000000000000000000000000000000000000000000000000000161461058c57604051638d1af8bd60e01b815260040160405180910390fd5b6001600160a01b0381165f90815260016020819052604090912090810154158015906105bd5750600381015460ff16155b156105da57604051628b039960e31b815260040160405180910390fd5b425f6105e882610e10610b61565b6040805160e0810182526001600160a01b0387811680835260208084018881528486018781525f606087018181526080880182815260a0890183815260c08a018481528885526001808952948c90209a518b546001600160a01b031916908b16178b559551938a0193909355925160028901555160038801805493516001600160a81b0319909416911515610100600160a81b0319169190911761010093909716929092029590951790559251600485015591516005909301929092559151838152929350917fc087c4cdb16906b5ff7016a6bf927618f24ff32eb1de5e86eeaeb08b94831a68910160405180910390a250505050565b6106e76109e7565b6106f05f610a13565b565b61073f6040518060e001604052805f6001600160a01b031681526020015f81526020015f81526020015f151581526020015f6001600160a01b031681526020015f81526020015f81525090565b506001600160a01b039081165f90815260016020818152604092839020835160e0810185528154861681529281015491830191909152600281015492820192909252600382015460ff81161515606083015261010090049092166080830152600481015460a08301526005015460c082015290565b6001600160a01b0381165f9081526004602090815260409182902080548351818402810184019094528084526060939283018282801561081157602002820191905f5260205f20905b8154815260200190600101908083116107fd575b50505050509050919050565b6108256109cc565b6001600160a01b0382165f908152600160208190526040909120908101541580610853575080600201544210155b806108625750600381015460ff165b15610880576040516334dc687f60e11b815260040160405180910390fd5b60058101546040516bffffffffffffffffffffffff19606086811b8216602084015233901b166034820152604881018290525f9060680160408051601f1981840301815291815281516020928301205f818152600284528281208890556003845282812080546001600160a01b031916331790556001600160a01b0389168152600484529182208054600181810183559184529390922090920182905590915061092b908390610b61565b600584015560405181815233906001600160a01b038716907fcff20ebc0ddee89eb4c0b92cb03a13853f03a4e2ce2ad69c7fa12043347cd5259060200160405180910390a350505061098960015f516020610b875f395f51905f5255565b5050565b6109956109e7565b6001600160a01b0381166109c357604051631e4fbdf760e01b81525f60048201526024015b60405180910390fd5b61054081610a13565b6109d4610a62565b60025f516020610b875f395f51905f5255565b5f546001600160a01b031633146106f05760405163118cdaa760e01b81523360048201526024016109ba565b5f80546001600160a01b038381166001600160a01b0319831681178455604051919092169283917f8be0079c531659141344cd1fd0a4f28419497f9722a3daafe3b4186f6b6457e09190a35050565b5f516020610b875f395f51905f52546002036106f057604051633ee5aeb560e01b815260040160405180910390fd5b80356001600160a01b0381168114610aa7575f5ffd5b919050565b5f60208284031215610abc575f5ffd5b610ac582610a91565b9392505050565b5f5f60408385031215610add575f5ffd5b610ae683610a91565b946020939093013593505050565b5f60208284031215610b04575f5ffd5b5035919050565b602080825282518282018190525f918401906040840190835b81811015610b42578351835260209384019390920191600101610b24565b509095945050505050565b634e487b7160e01b5f52603260045260245ffd5b80820180821115610b8057634e487b7160e01b5f52601160045260245ffd5b9291505056fe9b779b17422d0df92223018b32b4d1fa46e071723d6817e2486d003becc55f00a26469706673582212201c4f9c3d5e58a70009ae29ac46121a660aec7b00893649789fff6de7f3beb4c664736f6c634300081c0033",
  "linkReferences": {},
  "deployedLinkReferences": {},
  "immutableReferences": {
    "441": [
      {
        "length": 32,
        "start": 477
      },
      {
        "length": 32,
        "start": 1358
      }
    ]
  },
  "inputSourceName": "project/contracts/UmbraLiquidator.sol",
  "buildInfoId": "solc-0_8_28-dab3bd04ae6e2482749ab4575db9182b9b4bcefa"
}